:100000000C945D000C9485000C9485000C94850084
:100010000C9485000C9485000C9485000C9485004C
:100020000C9485000C9485000C9485000C9485003C
:100030000C9485000C9485000C9485000C9485002C
:100040000C9483020C9485000C94CB010C94A501B4
:100050000C9485000C9485000C9485000C9485000C
:100060000C9485000C94850000000008000201003B
:100070000003040700000000000000000000000072
:10008000250028002B0000000000240027002A0083
:10009000040404040404040402020202020203032E
:1000A0000303030301020408102040800102040836
:1000B0001020010204081020FA1511241FBECFEFF2
:1000C000D8E0DEBFCDBF23E0AAE7B2E001C01D92B9
:1000D000AA34B207E1F712E0A0E0B1E0EAE3F8E306
:1000E00002C005900D92AA37B107D9F710E0CDE50F
:1000F000D0E004C02197FE010E94E817CC35D1075B
:10010000C9F70E945D090C941B1C0C940000CF924F
:10011000DF92EF92FF920F931F93CF93DF936C01C7
:100120007A018B01C0E0D0E0CE15DF0589F0D8015F
:100130006D918D01D601ED91FC910190F081E02D42
:10014000C6010995892B11F47E0102C02196ECCFDE
:10015000C701DF91CF911F910F91FF90EF90DF903A
:10016000CF900895FC01918D828D981761F0828D5A
:10017000DF01A80FB11D5D968C91928D9F5F9F73DB
:10018000928F90E008958FEF9FEF0895FC01918D7D
:10019000828D981731F0828DE80FF11D858D90E0EA
:1001A00008958FEF9FEF0895FC01918D228D892F87
:1001B00090E0805C9F4F821B91098F73992708956F
:1001C00083E992E00E94D40021E0892B09F420E029
:1001D000822F0895FC01848DDF01A80FB11DA35A61
:1001E000BF4F2C91848D90E001968F739927848F57
:1001F000A689B7892C93A089B1898C9180648C934E
:10020000938D848D981306C00288F389E02D808138
:100210008F7D80830895EF92FF920F931F93CF936A
:10022000DF93EC0181E0888F9B8D8C8D981305C046
:10023000E889F989808185FD24C0F62E0B8D10E0B8
:100240000F5F1F4F0F731127E02E8C8DE8120CC02B
:100250000FB607FCFACFE889F989808185FFF5CFD1
:10026000CE010E94EA00F1CF8B8DFE01E80FF11D57
:10027000E35AFF4FF0820B8FEA89FB89808180620D
:1002800007C0EE89FF896083E889F98980818064ED
:10029000808381E090E0DF91CF911F910F91FF90DB
:1002A000EF900895CF93DF93EC01888D8823C9F0F8
:1002B000EA89FB89808185FD05C0A889B9898C916F
:1002C00086FD0FC00FB607FCF5CF808185FFF2CF0A
:1002D000A889B9898C9185FFEDCFCE010E94EA00F3
:1002E000E7CFDF91CF91089580E090E0892B29F04E
:1002F0000E94E00081110C94000008953FB7F8942B
:1003000080918F0290919002A0919102B0919202FF
:1003100026B5A89B05C02F3F19F00196A11DB11D60
:100320003FBFBA2FA92F982F8827820F911DA11D9B
:10033000B11DBC01CD0142E0660F771F881F991FD8
:100340004A95D1F708950E94571B1F920F920FB63E
:100350000F9211242F933F934F935F936F937F934B
:100360008F939F93AF93BF93EF93FF9383E992E0B3
:100370000E94EA00FF91EF91BF91AF919F918F9101
:100380007F916F915F914F913F912F910F900FBE91
:100390000F901F9018951F920F920FB60F92112475
:1003A0002F938F939F93EF93FF93E091A302F0918C
:1003B000A4028081E091A902F091AA0282FD12C0FC
:1003C00090818091AC028F5F8F732091AD02821774
:1003D00051F0E091AC02F0E0ED56FD4F958F809327
:1003E000AC0201C08081FF91EF919F918F912F917D
:1003F0000F900FBE0F901F90189590E0FC01E859E8
:10040000FF4F3491FC01EC55FF4F2491FC01E05764
:10041000FF4FE491EE2309F43BC0332339F133302D
:1004200091F038F43130A9F0323001F584B58F7D88
:1004300012C0373091F03830A1F03430B9F48091E7
:1004400080008F7D03C0809180008F778093800033
:100450000DC084B58F7784BD09C08091B0008F77BF
:1004600003C08091B0008F7D8093B000F0E0EE0F6C
:10047000FF1FE458FF4FA591B4918FB7F894EC910A
:10048000611103C020952E2301C02E2B2C938FBF0A
:1004900008958F929F92AF92BF92CF92DF92EF9288
:1004A000FF926B017C010E947E014B015C01C11433
:1004B000D104E104F104F1F00E947E01DC01CB01E2
:1004C00088199909AA09BB09883E9340A105B1057D
:1004D00070F321E0C21AD108E108F10888EE880E15
:1004E00083E0981EA11CB11CC114D104E104F104E5
:1004F00019F7DDCFFF90EF90DF90CF90BF90AF90D6
:100500009F908F9008951F920F920FB60F92112413
:100510002F933F938F939F93AF93BF9380918B02C1
:1005200090918C02A0918D02B0918E0230918A023E
:1005300023E0230F2D3720F40196A11DB11D05C026
:1005400026E8230F0296A11DB11D20938A028093F5
:100550008B0290938C02A0938D02B0938E028091B7
:100560008F0290919002A0919102B0919202019617
:10057000A11DB11D80938F0290939002A0939102D0
:10058000B0939202BF91AF919F918F913F912F9124
:100590000F900FBE0F901F9018950F931F93CF933E
:1005A000DF93EC018B0184E090E00E942A1AFC01A9
:1005B000892BA9F011830083138212828A819B8187
:1005C000892B19F4FB83EA8306C0A881B9811396AD
:1005D000FC93EE931297F983E88381E001C080E0F9
:1005E000DF91CF911F910F9108956F927F928F921B
:1005F0009F92AF92BF92CF92DF92EF92FF920F93B2
:100600001F93CF93DF93EC018A819B818230910508
:1006100099F054F4019709F0E3C0EC81FD81E08882
:10062000F1880289138931C18330910509F44EC0E4
:10063000049709F491C0D4C08881998181309105D3
:1006400019F0029719F1CCC0EC81FD81E088F188A6
:100650000289138920E030E0A901B701C8010E9496
:10066000B31918160CF0BCC0EE81FF81C088D18888
:10067000D289C38920E030E0A901B6018D2F9C2FDB
:100680000E94B31918160CF4B0C0AAC0EC81FD8109
:10069000E088F1880289138920E030E0A901B701E0
:1006A000C8010E94B3190E80DF81C02D18160CF40A
:1006B000A8C020E030E0A901688979898A899B89EE
:1006C0000E94B31918160CF49CC08AC088819981C5
:1006D0008130910519F0029709F182C0EC81FD810A
:1006E000E088F1880289138920E030E0A901B70190
:1006F000C8010E94B31918160CF072C0C884D984BE
:10070000C6010E94F5024B015C0120E030E0A90126
:100710000E94B31918160CF487C062C0EC81FD81E9
:10072000E088F1880289138920E030E0A901B7014F
:10073000C8010E94B319C884D98418160CF47DC06E
:10074000C6010E94F50220E030E0A9010E94B31921
:1007500018160CF472C044C08881998181309105CB
:1007600019F0029701F13CC078846984872D962D99
:100770000E94F5026B017C0120E030E0A9010E949B
:10078000B31918166CF50A851B85C8010E94F5027D
:100790004B015C0120E030E0A9010E94B31918165A
:1007A0000CF458C01DC0B884A9848B2D9A2D0E94CA
:1007B000F5026B017C0120E030E0A9010E94B31931
:1007C0000A851B8518160CF450C0C8010E94F5025A
:1007D00020E030E0A9010E94B31918160CF445C0BE
:1007E000E12CF12C00E010E050C096014D2F5C2F61
:1007F000B701C8010E945B1887FD47C076010D2F25
:1008000011C0B888C988DA88CB892B2D3C2D4D2D95
:100810005C2FB701C8010E94B3191816B4F1EB2C74
:10082000FC2C0D2D1C2F31C0A5019401B701C8016E
:100830000E945B1887FD29C00BC0C6010E94F5020B
:100840009B01AC01B701C8010E94B3191816ECF066
:10085000E601DACEA5019401C701B6010E945B183A
:1008600087FF11C0C72DD62DCFCEC8010E94F5023B
:100870009B01AC01C701B6010E94B31918161CF404
:10088000CB2DDA2DC1CEE801BFCEB701C801DF9173
:10089000CF911F910F91FF90EF90DF90CF90BF907D
:1008A000AF909F908F907F906F9008954F925F923E
:1008B0006F927F928F929F92AF92BF92CF92DF9270
:1008C000EF92FF920F931F93CF93DF93CDB7DEB7D5
:1008D00068970FB6F894DEBF0FBECDBF4D875E8719
:1008E0006F87788B098B1A8B2B8B3C8B2FA538A9A4
:1008F00049A95AA96FA978AD89AD9AAD0E94EE17A2
:100900006D8B7E8B8F8B988F2D853E854F8558897B
:10091000C701B6010E94EE176D837E838F8398878F
:100920002BA53CA54DA55EA56BA97CA98DA99EA96B
:100930000E94EE176B017C0129893A894B895C89F9
:10094000C501B4010E94EE1769877A878B879C875F
:100950002D813E814F8158856D897E898F89988D43
:100960000E94B8194B015C0129853A854B855C854D
:10097000C701B6010E94B8199B01AC01C501B401C1
:100980000E94EE172B013C012FA538A949A95AA9AD
:1009900069897A898B899C890E94EE174B015C01D9
:1009A0002BA53CA54DA55EA56D857E858F85988977
:1009B0000E94EE1769837A838B839C83A50194013F
:1009C000C701B6010E94B8196B017C0129813A81E7
:1009D0004B815C816D897E898F89988D0E94B819C1
:1009E0009B01AC01C701B6010E94EE176B017C01AF
:1009F000A50194016D817E818F8198850E94B8192F
:100A00004B015C0129813A814B815C8169857A8542
:100A10008B859C850E94B8199B01AC01C501B4016E
:100A20000E94EE174B015C0120E030E0A901C301F8
:100A3000B2010E945B1887FF04C077FA709477F8C0
:100A4000709420E030E0A901C701B6010E945B1854
:100A500087FF04C0F7FAF094F7F8F09420E030E054
:100A6000A901C501B4010E945B1887FF04C0B7FA51
:100A7000B094B7F8B0942FE632E143E85AE3C301EB
:100A8000B2010E945B1887FD61C0A3019201C701FA
:100A9000B6010E9460186B017C0120E030E0A901E2
:100AA0000E945B1887FD52C020E030E040E85FE321
:100AB000C701B6010E94B31918160CF447C0A30170
:100AC0009201C501B4010E9460184B015C0120E055
:100AD00030E0A9010E945B1887FD38C020E030E0BB
:100AE00040E85FE3C501B4010E94B319181674F120
:100AF0002D813E814F815885C701B6010E94B819EA
:100B00009B01AC016D857E858F8598890E94EF17CA
:100B1000EBADFCAD608371838283938329853A8535
:100B20004B855C85C701B6010E94B8199B01AC01D9
:100B300069897A898B899C890E94EF17EDADFEAD9A
:100B4000608371838283938381E001C080E0689633
:100B50000FB6F894DEBF0FBECDBFDF91CF911F91CE
:100B60000F91FF90EF90DF90CF90BF90AF909F904C
:100B70008F907F906F905F904F9008950F931F9389
:100B8000CF93DF93EC018B0184E090E00E942A1A5E
:100B9000FC01892BA9F011830083138212828E81BC
:100BA0009F81892B19F4FF83EE8306C0A885B98540
:100BB0001396FC93EE931297F987E88781E001C0C2
:100BC00080E0DF91CF911F910F910895CF93DF9334
:100BD0006115710551F0EB016A857B850E94E60580
:100BE000CE01DF91CF910C94BF1ADF91CF91089580
:100BF0008F929F92AF92BF92CF92DF92EF92FF922D
:100C00000F931F93CF93DF936A017B014801590132
:100C1000FC01C081D1812097C1F0A70196016A81B2
:100C20007B818C819D810E945B1881110AC0A50186
:100C300094016E817F81888599850E945B18882345
:100C400031F00990D881C02DE6CF80E001C081E06D
:100C5000DF91CF911F910F91FF90EF90DF90CF9098
:100C6000BF90AF909F908F900895AF92BF92CF9218
:100C7000DF92EF92FF920F931F93CF93DF9300D0F9
:100C800000D0CDB7DEB75C01680179018CE090E05F
:100C900049835A836B837C830E942A1AFC01498111
:100CA0005A816B817C81892B49F1118210824283A8
:100CB000538364837583C682D782E086F186138668
:100CC0001286D50112968D919C911397892B39F438
:100CD0001396FC93EE931297ED93FC930DC0D50100
:100CE0008D919C91119791838083ED93FC93DC010E
:100CF0001B96FC93EE931A9781E001C080E00F9061
:100D00000F900F900F90DF91CF911F910F91FF9057
:100D1000EF90DF90CF90BF90AF900895DC011296D6
:100D2000ED91FC9113973097A1F0A081B1818D9145
:100D30009C9111978617970741F412962D933D9336
:100D40004D935C93159781E008950280F381E02D27
:100D5000EACF80E008950F931F93CF93DF93EC01C8
:100D60008B0184E090E00E942A1AFC01892BA9F0F3
:100D700011830083138212828A859B85892B19F443
:100D8000FB87EA8706C0A885B9851396FC93EE9386
:100D90001297F987E88781E001C080E0DF91CF9169
:100DA0001F910F9108950F931F93CF93DF93EC0141
:100DB0008B0184E090E00E942A1AFC01892BA9F0A3
:100DC00011830083138212828A819B81892B19F4FB
:100DD000FB83EA8306C0A881B9811396FC93EE9346
:100DE0001297F983E88381E001C080E0DF91CF9121
:100DF0001F910F9108958F929F92AF92BF92CF92C1
:100E0000DF92EF92FF926B017C0161E08DE00E9426
:100E1000FD0161E087E00E94FD0161E088E00E9441
:100E2000FD0161E082E00E94FD0182E092E00E940B
:100E3000DB07C701B6010E945B0885E292E00E94D1
:100E40002E0820E030E04AE754E4C701B6010E94D2
:100E5000B8190E94D2184B015C010E94490260E05F
:100E60008DE00E94FD0160E087E00E94FD0161E0ED
:100E70008CE00E94FD0161E086E00E94FD018CE2B1
:100E800092E00E942E0860ED77E080E090E00E9402
:100E9000490260E08CE00E94FD0160E086E00E9473
:100EA000FD0160E088E00E94FD0160E082E00E94B8
:100EB000FD0161E08BE00E94FD0161E085E00E94A0
:100EC000FD0161E08AE00E94FD0161E084E00E9492
:100ED000FD0187E492E00E94DB07C701B6010E9492
:100EE0005B0885E292E00E942E08C501B4010E94D1
:100EF000490260E08AE00E94FD0160E084E00E9417
:100F0000FD0161E089E00E94FD0161E083E00E9453
:100F1000FD018CE292E00E942E0860ED77E080E017
:100F200090E00E94490260E089E00E94FD0160E0DB
:100F300083E00E94FD0160E08BE00E94FD0160E023
:100F400085E0FF90EF90DF90CF90BF90AF909F90A3
:100F50008F900C94FD0160E08DE00E94FD0160E047
:100F600087E00E94FD0160E08AE00E94FD0160E0F0
:100F700084E00E94FD0160E088E00E94FD0160E0E5
:100F800082E00E94FD0160E08BE00E94FD0160E0D4
:100F900085E00E94FD0160E08CE00E94FD0160E0C0
:100FA00086E00E94FD0160E089E00E94FD0160E0B2
:100FB00083E00C94FD01009769F0FC010190002092
:100FC000E9F73197AF01481B590BBC0183E992E067
:100FD0000C94870080E090E008958F929F92AF92EA
:100FE000BF920F931F93CF93DF93CDB7DEB7A19737
:100FF0000FB6F894DEBF0FBECDBF19A2423008F481
:101000004AE08E010F5D1F4F842E912CA12CB12C34
:10101000A50194010E94EA1BE62FB901CA01015003
:101020001109EA3014F4E05D01C0E95CD801EC93E9
:10103000232B242B252B61F7C8010E94DB07A196E7
:101040000FB6F894DEBF0FBECDBFDF91CF911F91D9
:101050000F91BF90AF909F908F900895CF93DF93A3
:101060000E94DB07EC018BE692E00E94DB078C0F0D
:101070009D1FDF91CF91089590E0FC01EC55FF4F4B
:101080002491FC01E057FF4F8491882399F090E070
:10109000880F991FFC01EA57FF4FA591B491FC01FD
:1010A000E458FF4F859194918FB7F894EC91E22B1F
:1010B000EC938FBF08958F929F92AF92BF92CF9281
:1010C000DF92EF92FF92CF93DF936B017C019B0144
:1010D000AC010E94251A882319F08EE692E027C001
:1010E00046015701E894B7F82FEF3FEF4FE75FE76E
:1010F000C501B4010E94251A81110DC02FEF3FEFE9
:101100004FE75FE7C501B4010E945B1818161CF495
:1011100082E792E00CC02FEF3FEF4FE75FE4C7019B
:10112000B6010E94B319181674F486E792E0DF91B5
:10113000CF91FF90EF90DF90CF90BF90AF909F90B6
:101140008F900C94DB072FEF3FEF4FE75FECC70169
:10115000B6010E945B1887FDE8CF20E030E0A901CE
:10116000C701B6010E945B1887FF11C0E09193028E
:10117000F09194020190F081E02D6DE283E992E01C
:101180000995EC01F7FAF094F7F8F09402C0C0E08A
:10119000D0E02AE037ED43EA5BE3C701B6010E94E5
:1011A000EF174B015C010E94D2186B017C010E9479
:1011B00001199B01AC01C501B4010E94EE174B015E
:1011C0005C014AE0C701B6010E94ED07C80FD91FB4
:1011D00088E691E00E94DB07C80FD91F20E030E0CD
:1011E00040E251E4C501B4010E94B8194B015C0111
:1011F0000E94D2186B01E12CF12C4AE0C701B60124
:101200000E94ED07C80FD91FC701B6010E9401193E
:101210009B01AC01C501B4010E94EE1720E030E053
:1012200040E251E40E94B8190E94D21880E090E098
:101230004AE00E94ED078C0F9D1FDF91CF91FF9038
:10124000EF90DF90CF90BF90AF909F908F900895D8
:10125000CF92DF92EF92FF92CF93DF936B017C01ED
:1012600097FF1AC0E0919302F09194020190F081EF
:10127000E02D6DE283E992E00995EC01662777277E
:10128000CB016C197D098E099F094AE00E94ED0788
:101290007C01EC0EFD1E04C04AE00E94ED077C01BB
:1012A0008BE692E00E94DB078E0D9F1DDF91CF91B0
:1012B000FF90EF90DF90CF900895CF93DF93CDB75D
:1012C000DEB7CE54D1090FB6F894DEBF0FBECDBF46
:1012D000789484B5826084BD84B5816084BD85B511
:1012E000826085BD85B5816085BD80916E0081601D
:1012F00080936E00109281008091810082608093C3
:1013000081008091810081608093810080918000C4
:101310008160809380008091B10084608093B100EF
:101320008091B00081608093B00080917A008460E9
:1013300080937A0080917A00826080937A00809115
:101340007A00816080937A0080917A00806880932F
:101350007A001092C100E091A302F091A40282E011
:101360008083E0919F02F091A0021082E091A1029F
:10137000F091A2028FEC80831092AB02E091A70261
:10138000F091A80286E08083E091A502F091A60288
:10139000808180618083E091A502F091A602808126
:1013A00088608083E091A502F091A6028081806828
:1013B0008083E091A502F091A60280818F7D8083D9
:1013C0008AE191E00E942E0883E391E00E942E08BA
:1013D0008AE191E00E942E088DE00E943C0887E09F
:1013E0000E943C088BE00E943C0885E00E943C087B
:1013F0008CE00E943C0886E00E943C088AE00E9443
:101400003C0884E00E943C0889E00E943C0883E09C
:101410000E943C0888E00E943C0882E00E943C0850
:1014200068EB7BE080E090E00E9449028CE591E06F
:101430000E94DB0768EE73E080E090E00E944902C2
:1014400088E691E00E94DB0768EE73E080E090E0C0
:101450000E94490288E691E00E942E0868EE73E03F
:1014600080E090E00E9449028AE090E00E942A1AFF
:101470008C01EE24E394F12CDC011196FC92EE92A7
:1014800017961C921E92169719961C921E921897E8
:1014900060914203709143030E94BE056091400336
:1014A00070914103C8010E94BE0560913E03709196
:1014B0003F03C8010E94BE05B8018091440390918A
:1014C00045030E94D3068AE090E00E942A1A8C010C
:1014D00082E090E0F8019183808317821682118662
:1014E00010866091340370913503C8010E94BE05D7
:1014F0006091320370913303C8010E94BE05609170
:10150000300370913103C8010E94BE05B80180917B
:101510004403909145030E94D3068EE090E00E9420
:101520002A1A8C01DC011196FC92EE9217961C92FD
:101530001E92169719961C921E9218971B961C9233
:101540001E921A971D961C921E921C9760913C0346
:1015500070913D030E94BE0560913A0370913B0378
:10156000C8010E94BE056091380370913903C8011B
:101570000E94BE056091360370913703C8010E9436
:10158000BE05409044035090450384E090E00E94E3
:101590002A1A3C01009709F451C0FC011183008311
:1015A00013821282D80116963C90169717962C90AB
:1015B000E32CF22CE114F10451F1032D122D01154D
:1015C000110509F1F801C280D380C114D104C9F01A
:1015D000A080B180D6018D909C90F4012081318152
:1015E00042815381D5016D917D918D919C910E9495
:1015F000B319181634F4F80191828082D601AD92A5
:10160000BC928601DCCFF701E280F380D3CFD20118
:1016100016968D919C911797892B29F417967C9299
:101620006E92169707C0D2011496ED91FC91159712
:101630007382628215967C926E9214978CE090E091
:101640000E942A1A8C01FC011182108213821282DC
:1016500015821482178216821186108613861286CE
:10166000809130039091310320913E0330913F03EC
:101670002115310571F0009761F041E050E0518390
:10168000408342E050E05383428335832483978331
:10169000868384E090E00E942A1A7C01DC01139684
:1016A0001C921E9212971D921C92609138037091A9
:1016B00039030E94CD0287E090E00E942A1AFC01C3
:1016C000CC24C394D12CD182C08214830383F682AC
:1016D000E5821282BC0180914403909145030E94EF
:1016E000AB068CE090E00E942A1A8C01FC0111826A
:1016F000108213821282158214821782168211863A
:1017000010861386128680913403909135032091C0
:101710003E0330913F032115310561F0009751F0F0
:10172000D182C08242E050E05383428335832483D8
:101730009783868384E090E00E942A1A7C01DC0172
:1017400013961C921E9212971D921C9260913A035E
:1017500070913B030E94CD0287E090E00E942A1A1C
:10176000FC0132E0C32ED12CD182C08214830383CA
:10177000F682E5821282BC01809144039091450378
:101780000E94AB068CE090E00E942A1A8C01FC01BA
:10179000118210821382128215821482178216829D
:1017A0001186108613861286809130039091310342
:1017B00020914203309143032115310561F00097D8
:1017C00051F041E050E051834083D382C28235839F
:1017D00024839783868384E090E00E942A1A7C0108
:1017E000DC0113961C921E9212971D921C9260911E
:1017F0003603709137030E94CD0287E090E00E948B
:101800002A1AFC0183E090E0918380831483038390
:10181000F682E5821282BF018091440390914503D4
:101820000E94AB068CE090E00E942A1A8C01FC0119
:1018300011821082138212821582148217821682FC
:101840001186108613861286809134039091350399
:1018500020914203309143032115310571F0009727
:1018600061F041E050E05183408342E050E0538317
:101870004283358324839783868384E090E00E94AB
:101880002A1A7C01DC0113961C921E9212971D925B
:101890001C9260913C0370913D030E94CD0287E051
:1018A00090E00E942A1AFC0184E090E091838083FA
:1018B00014830383F682E5821282BF018091440380
:1018C000909145030E94AB0680E480937C00809158
:1018D0007A00806480937A0080917A0086FDFCCF44
:1018E000609178008091790070E0782B072E000CD1
:1018F000880B990B611571058105910511F00E9406
:10190000AF1BFE013996FC8BEB8B8E01035F1F4FE3
:101910001E8B0D8B8AE691E00E942E080E94AA1B66
:1019200023E130E040E050E00E94B81BDC01CB0135
:101930000196A11DB11D8093860290938702A0930A
:101940008802B09389020E94AA1B2DE1C22ED12CDD
:10195000E12CF12CA70196010E94B81BDC01CB0100
:101960000196A11DB11D8093820290938302A093E2
:101970008402B09385020E94AA1B23E130E040E07C
:1019800050E00E94B81BDC01CB010196A11DB11DE6
:1019900080937E0290937F02A0938002B093810295
:1019A0000E94AA1BA70196010E94B81B6B017C0133
:1019B0001FEFC11AD10AE10AF10AC0927A02D0924D
:1019C0007B02E0927C02F0927D026091860270912F
:1019D000870280918802909189020E9403199B01DD
:1019E000AC0161E070E080914403909145030E9456
:1019F0008E066091820270918302809184029091A0
:101A000085020E9403199B01AC0162E070E08091A5
:101A10004403909145030E948E0660917E0270916E
:101A20007F0280918002909181020E9403199B01A4
:101A3000AC0163E070E080914403909145030E9403
:101A40008E06C701B6010E9403199B01AC0164E038
:101A500070E080914403909145030E948E0689E7CF
:101A600091E00E94DB0740918202509183026091D5
:101A700084027091850280917A0290917B02A091FC
:101A80007C02B0917D028A019B01080F191F2A1F59
:101A90003B1FC901B8010E9428098DE891E00E940E
:101AA000DB07409186025091870260918802709115
:101AB000890280917E0290917F02A0918002B09174
:101AC00081028A019B01080F191F2A1F3B1FC901B0
:101AD000B8010E94280900914403109145031AA3FC
:101AE00009A3D80112962D903C90139791012115CE
:101AF0003105E1F0F901A081B18116960D90BC91FC
:101B0000A02D109769F08D919C911197FC01108A7E
:101B1000118A128A138A12960D90BC91A02DF1CFD2
:101B2000D90112962D913C911397E1CFE9A1FAA129
:101B30000680F781E02DF8A7EFA39F01211531055D
:101B4000A1F1F901A081B18116960D90BC91A02D53
:101B5000109769F08D919C911197FC01108A118A60
:101B6000128A138A12960D90BC91A02DF1CFD90143
:101B700012962D913C911397E1CFAF89B88D0D91BD
:101B80001C910115110501F5AF89B88D12960D90C4
:101B9000BC91A02DB88FAF8B0F89188D012B69F7E1
:101BA000D10112962D903C9013972114310409F421
:101BB0001AC1F1010190F081E02DFEA3EDA3068191
:101BC0001781188F0F8BE8CFEDA1FEA1C280D380C3
:101BD000E480F580D8012D913D914D915C91298F44
:101BE0003A8F4B8F5C8FC701B6010E945B18F801DA
:101BF000448055806680778087FF22C0A3019201D0
:101C0000698D7A8D8B8D9C8D0E945B188111E5C04A
:101C1000D8011896CD90DD90ED90FC901B97A70110
:101C20009601C301B2010E945B18882309F4D5C054
:101C3000F8012485358546855785C701B601BDC0A5
:101C4000298D3A8D4B8D5C8DC701B6010E94B31969
:101C500087FD34C0A3019201C701B6010E945B1841
:101C600087FF2CC0298D3A8D4B8D5C8DC301B2014D
:101C70000E94EE179B01AC0160E070E080E89FE3FA
:101C80000E9460184B015C01A3019201C701B601DB
:101C90000E94EE179B01AC01C501B4010E94B81966
:101CA00020E030E040E85FE30E94EF17D801509653
:101CB0006D937D938D939C93539766CFA30192016F
:101CC000C701B6010E94B31987FD0CC0F801208539
:101CD000318542855385C701B6010E945B181816ED
:101CE0000CF06FC0F80180849184A284B384A501B4
:101CF0009401C701B6010E94B319D8011C962D9119
:101D00003D914D915C911F972D8F3E8F4F8F58A322
:101D1000181684F5C701B6010E945B18181654F115
:101D20002D8D3E8D4F8D58A1C501B4010E94EE1737
:101D30009B01AC0160E070E080E89FE30E946018C6
:101D40002B013C01A5019401C701B6010E94EE17C9
:101D50009B01AC01C301B2010E94B81920E030E040
:101D600040E85FE30E94EF17F801608B718B828B74
:101D7000938B0ACF2D8D3E8D4F8D58A1C701B60193
:101D80000E94B31918160CF0FFCE2D8D3E8D4F8D8D
:101D900058A1C501B4010E945B1881111EC0A301A6
:101DA0009201C501B4010E945B188823B1F0298D0E
:101DB0003A8D4B8D5C8DC301B2010E945B18882364
:101DC00061F020E030E040E85FE3D80150962D93C9
:101DD0003D934D935C935397D7CEF801108A118AA7
:101DE000128A138AD1CEE9A1FAA10285138577243C
:101DF00073940115110509F442C0D801ED90FC90CF
:101E0000F701838194810097B1F10E94F5024B01A3
:101E10005C0120E030E0A9010E94B319181624F4F7
:101E2000D70112967C9202C0F7011282D701159653
:101E3000ED91FC911697E280F380E114F104D9F062
:101E4000F701C080D180A5019401D60150966D9113
:101E50007D918D919C9153970E945B1887FF05C0DF
:101E6000F601808A918AA28AB38AD7011296ED90F0
:101E7000FC901397E2CFF80102811381BACF8E0153
:101E80000B5F1F4F1A8B098BEFA1F8A5EF2B09F4FD
:101E900015C4AFA1B8A50D90BC91A02DBA8FA98F84
:101EA0001D01BAE02B0E311CE98DFA8D6485758514
:101EB000C1010E94E605A98DBA8D1D961C921E9245
:101EC0001C971B961C921E921A9716966D907C90EA
:101ED00017976114710409F4AAC1F30100811181FB
:101EE00020E030E0A901D80150966D917D918D914F
:101EF0009C9153970E94B31918160CF094C1F801E5
:101F0000C080D180E280F380248135814681578171
:101F1000C701B6010E945B18882391F000E010E031
:101F20009801B701A601C1010E94F805811108C0FE
:101F300000E010E09801B701A601C1010E9435063A
:101F4000D3010D911C91F801C480D580E680F78003
:101F50002085318542855385C701B6010E945B18F3
:101F6000811129C0D801BC91BF8BF801F181FD8F8F
:101F7000D80112965C90129713964C9013971C966A
:101F8000BC91B9A3F801B584A68497842B2F3B2D6F
:101F90004A2D592DBF89AD8DF2016B2F7A2F8F2FCE
:101FA0009E2F0E945B188111BEC5F8018088918820
:101FB000A288B388FFC0F80180889188A288B3887E
:101FC00020E030E040E85FE3682D792D8A2D9B2DDD
:101FD0000E945B18811120C000E010E020E83FE380
:101FE000B701A601C1010E94F805811109C000E0F6
:101FF00010E020E83FE3B701A601C1010E943506C9
:10200000D301ED91FC9180889188A288B388C08427
:10201000D184E284F384CEC0CD86DE86EF86F88A52
:102020009401F501C901DF0189879A87AB87BC87D5
:10203000D8017C9111966C91119712965C91129730
:1020400013964C91BC89BF938B898F939E899F93E4
:10205000AD89AF93FF93EF933F932F93D8011F96D2
:102060008C911F978F931E968C911E978F931D9620
:102070008C911D978F931C968C918F93FF93EF9368
:102080003F932F934F935F936F937F93812C912C6A
:1020900080E8A82E8FE3B82E00E010E09801FB0145
:1020A000CA014F2F5E2F692F782F898D9A8D0E943C
:1020B000560489849A84AB84BC84CD84DE84EF8406
:1020C000F88895018401B701A601C1010E94F805B5
:1020D0000FB6F894DEBF0FBECDBF811107C09501CA
:1020E0008401B701A601C1010E943506D301ED911B
:1020F000FC9184819581A681B7818D839E83AF8376
:10210000B8875089418992898389252F342F8C0182
:10211000C901A12FB02F89839A83AB83BC83E48448
:10212000F584B685A785408551856285738581E0F4
:1021300090E08C0F9D1F9F938F939A899F9389891D
:102140008F930F931F933F932F93AF93BF93FF9260
:10215000EF920F931F933F932F9383818F938281ED
:102160008F9381818F9380818F93812C912C540147
:10217000CD01CE2CDF2CE92EF82E00E010E020E877
:102180003FE3898D9A8D0E94560489809A80AB80A6
:10219000BC80CD80DE80EF80F88495018401B7019A
:1021A000A601C1010E94F8050FB6F894DEBF0FBE6C
:1021B000CDBF07C095018401B701A601C1010E94EE
:1021C000F805811107C095018401B701A601C1017D
:1021D0000E943506D301ED90FC90F701848495842C
:1021E000A684B784A5019401608571858285938555
:1021F0000E945B188823B9F000E010E09801B50157
:10220000A401C1010E94F805882309F4EAC4D7019A
:102210002D913D914D915C91C501B4010E945B18D7
:10222000882309F4DEC4F3016280738052CEA98D45
:10223000BA8D1C960D90BC91A02DBEA3ADA30DA18F
:102240001EA1012B09F431C22DA03EA0F101008195
:1022500011810115110581F0F8012281338144813A
:102260005581D10112966D917D918D919C9115971B
:102270000E945B1887FF07C0388E2F8A27963FAED3
:102280002EAE279713C01801E1CF008111811AA348
:1022900009A3012BA1F42796AEADBFAD27970D90F2
:1022A000BC91A02D2796BFAFAEAF27972796AEADB6
:1022B000BFAD2797ED91FC91309739F7EEC1D10171
:1022C0001A960D90BC91A02DBCA7ABA7D101129678
:1022D0000D911D912D913C91159725960CAF1DAF39
:1022E0002EAF3FAF259716960D911D912D913C91E4
:1022F000199721960CAF1DAF2EAF3FAF21970281EA
:1023000013812481358109AF1AAF2BAF3CAF2681F1
:102310003781408551852DAB3EAB4FAB58AFA9A15E
:10232000BAA116966D917D918D919C9119970E94FD
:10233000EE172B966CAF7DAF8EAF9FAF2B97259688
:102340002CAD3DAD4EAD5FAD2597EBA5FCA56281F3
:102350007381848195810E94EE1769AB7AAB8BAB58
:102360009CAB29AD3AAD4BAD5CADA9A1BAA112961B
:102370006D917D918D919C9115970E94EE172B0187
:102380003C0121962CAD3DAD4EAD5FAD2197EBA547
:10239000FCA566817781808591850E94EE176DA7E7
:1023A0007EA78FA798AB29A93AA94BA95CA92B9620
:1023B0006CAD7DAD8EAD9FAD2B970E94B8196B01B2
:1023C0007C012DA53EA54FA558A9C301B2010E94CD
:1023D000B8199B01AC01C701B6010E94EE176D8FC1
:1023E0007E8F8F8F98A32DA93EA94FA958AD219616
:1023F0006CAD7DAD8EAD9FAD21970E94EE174B0168
:102400005C0129AD3AAD4BAD5CAD25966CAD7DADB3
:102410008EAD9FAD25970E94EE176B017C01A50143
:102420009401C301B2010E94B8192B013C01A7011C
:1024300096012B966CAD7DAD8EAD9FAD2B970E9416
:10244000B8199B01AC01C301B2010E94EE172B0128
:102450003C01A501940169A97AA98BA99CA90E94B4
:10246000B8194B015C01A70196016DA57EA58FA54A
:1024700098A90E94B8199B01AC01C501B4010E9442
:10248000EE176B017C0120E030E0A9016D8D7E8D9F
:102490008F8D98A10E945B1887FF09C00D8D1E8D3E
:1024A0002F8D38A130580D8F1E8F2F8F38A320E02D
:1024B00030E0A901C301B2010E945B1887FF04C08C
:1024C00077FA709477F8709420E030E0A901C701A2
:1024D000B6010E945B1887FF04C0F7FAF094F7F882
:1024E000F0942FE632E143E85AE36D8D7E8D8F8DB7
:1024F00098A10E945B1887FDCECE2D8D3E8D4F8D0D
:1025000058A1C301B2010E9460184B015C0120E098
:1025100030E0A9010E945B1887FDBDCE20E030E0CD
:1025200040E85FE3C501B4010E94B31918160CF42A
:10253000B2CE2D8D3E8D4F8D58A1C701B6010E94A0
:1025400060186B017C0120E030E0A9010E945B185B
:1025500087FDA1CE20E030E040E85FE3C701B6018F
:102560000E94B31918160CF496CE8CE090E00E94ED
:102570002A1A8C01009709F48ECEE9A1FAA1DC0198
:10258000ED93FC9329A93AA94BA95CA9C501B40113
:102590000E94B8199B01AC0125966CAD7DAD8EAD46
:1025A0009FAD25970E94EF17D80112966D937D93EA
:1025B0008D939C9315972DA53EA54FA558A9C501B0
:1025C000B4010E94B8199B01AC0121966CAD7DADA0
:1025D0008EAD9FAD21970E94EF17F8016683778338
:1025E000808791872BA53CA533872287A9A1BAA113
:1025F0001B961C930E931A97F90111830083AF89E0
:10260000B88D12962D913D914D915C91159716962E
:10261000CD90DD90ED90FC9019970C9111961C9146
:102620001197CD012C962FAF2C972D963FAF2D975C
:102630002E964FAF2E972F965FAF2F970E94BF1AFF
:102640002C962FAD2C972D963FAD2D972E964FADF6
:102650002E972F965FAD2F9769AD7AAD8BAD9CAD60
:102660000E945B1881110AC0A70196016DA97EA97D
:102670008FA998AD0E945B18882339F00F8B188FB3
:102680000F89188D012B09F0BACFA98DBA8D1C9630
:102690000D90BC91A02DBEA3ADA3EDA1FEA102841F
:1026A000F385E02DFEA3EDA3CACDAFA1B8A5129688
:1026B0000D90BC91A02DB8A7AFA3E6CBE091440349
:1026C000F09145030680F781E02D309709F44CC165
:1026D000A081B1818D919C911197019709F040C122
:1026E0001C960D911C911D971FA218A619A61AA63B
:1026F00019A21AA21BA21CA20115110509F411C1ED
:10270000D8011A960D90BC91A02DBA8FA98F109761
:1027100009F404C1F801C280D380E480F5801296E8
:102720004D905D906D907C901597A3019201C7012B
:10273000B6010E945B18D80116963C901697179622
:102740002C9017971896BC91BF8BF801F185FD8FDF
:10275000811105C0A32CB22C0B2F1F2FC1C020E06C
:1027600030E0A901632D722D8F899D8D0E945B1829
:10277000882389F0A98DBA8D16968D909D90AD9085
:10278000BC90199720E030E0A901C501B4010E9476
:102790005B18811148C020E030E0A901632D722D43
:1027A0008F899D8D0E94B31918163CF0E98DFA8D22
:1027B000A680B7800085118504C0A32CB22C0F8998
:1027C0001D8DA7019601C301B2010E94EE172B01D6
:1027D0003C019501A8010E94B81920E030E040E0DA
:1027E0005FE30E94B8195B018C01A98DBA8D169622
:1027F0002D913D914D915C911997632D722D8F898B
:102800009D8D0E945B1887FF05C020E030E040EC02
:102810005FE304C020E030E040E450E4C301B201D3
:102820000E94601855C020E030E0A901632D722D90
:102830008F899D8D0E94B319181604F520E030E0B1
:10284000A901C501B4010E94B3191816BCF4A50171
:102850009401632D722D8F899D8D0E945B18A701B5
:102860009601811113C0C301B2010E94EE172B0122
:102870003C01232D322D4F895D8D1EC0C12CD12CE2
:102880007601A12CB12C00E010E02AC0C301B201F6
:102890000E94EE172B013C01A5019401632D722DBE
:1028A0008F899D8D0E94EF1720E030E040E05FE3CC
:1028B0000E94B819A30192010E94B8195B018C0112
:1028C00020E030E040E05FE3C301B2010E94B819AC
:1028D0009B01AC01C701B6010E94EF176B017C019F
:1028E0009501A801C701B6010E94B8199B01AC016E
:1028F00069A17AA18BA19CA10E94EF1769A37AA379
:102900008BA39CA39501A8016FA178A589A59AA581
:102910000E94EF176FA378A789A79AA7098D1A8D30
:10292000EBCE20E030E0A9016FA178A589A59AA59A
:102930000E945B188823C1F02FA138A549A55AA58C
:1029400069A17AA18BA19CA10E9460186B017C01F6
:1029500020E030E0A9010E945B188111BCC004C0D6
:102960000280F381E02DB1CE82EA91E00E942E0830
:102970000E94AB0761E08CE00E94FD0161E086E00F
:102980000E94FD0161E089E00E94FD0161E083E0B9
:102990000E94FD0168EE73E080E090E00E94490231
:1029A00060E08CE00E94FD0160E086E00E94FD0195
:1029B00060E089E00E94FD0160E083E00E94FD018B
:1029C00068EE73E080E090E00E94490261E08CE0F4
:1029D0000E94FD0161E086E00E94FD0161E089E066
:1029E0000E94FD0161E083E00E94FD0168EE73E05A
:1029F00080E090E00E94490260E08CE00E94FD01CE
:102A000060E086E00E94FD0160E089E00E94FD0137
:102A100060E083E00E94FD0168EE73E080E090E0FA
:102A20000E94490261E08CE00E94FD0161E086E0C5
:102A30000E94FD0161E089E00E94FD0161E083E008
:102A40000E94FD0168EE73E080E090E00E94490280
:102A500060E08CE00E94FD0160E086E00E94FD01E4
:102A600060E089E00E94FD0160E083E00E94FD01DA
:102A700068EE73E080E090E00E94490261E08CE043
:102A80000E94FD0161E086E00E94FD0161E089E0B5
:102A90000E94FD0161E083E00E94FD0168EE73E0A9
:102AA00080E090E00E94490260E08CE00E94FD011D
:102AB00060E086E00E94FD0160E089E00E94FD0187
:102AC00060E083E00E94FD0168EE73E080E090E04A
:102AD0000E94490224C020E030E040EF51E4C701E9
:102AE000B6010E94B31987FD03C08DEB91E00FC0C2
:102AF00020E030E040EA51E4C701B6010E94B3197A
:102B000087FD03C083ED91E002C08BEE91E00E944F
:102B10002E080E94AB07C701B6010E94FB060E9467
:102B200074010C948A0CF8018088F189FDA3D80106
:102B30005296BC91BBA7F801138920E030E040E831
:102B40005FE3ADA1FBA5682D7A2F8F2F912F0E94F7
:102B50005B18811110C000E010E020E83FE3B701EE
:102B6000A601C1010E94F805811134CB00E010E0FC
:102B700020E83FE32ACBCD86DE86EF86F88A282D33
:102B80003DA14BA5512FC901DA0189879A87AB87EF
:102B9000BC87FC89FF930B890F931E891F938D8936
:102BA0008F935F934F933F938F929F92AF92BF9279
:102BB00009A10F935F934F933F938F924F925F9230
:102BC0001D8D1F932F892F93812C912C90E8A92E76
:102BD0009FE3B92E00E010E09801FF89ED8DC2015E
:102BE00060CA00E010E09801B501A401C1010E9493
:102BF000350619CB4F925F926F927F928F929F9280
:102C0000AF92BF92CF92DF92EF92FF92CF93DF937A
:102C100000D000D0CDB7DEB7E3E9F2E01382128234
:102C200088EE93E0A0E0B0E084839583A683B78329
:102C30008EE091E09183808385EC90E09587848796
:102C400084EC90E09787868780EC90E0918B808B76
:102C500081EC90E0938B828B82EC90E0958B848B5F
:102C600086EC90E0978B868B118E128E138E148ECD
:102C70008CE090E00E942A1AFC01138212821182D9
:102C8000108217821682158214821386128611868C
:102C90001086909345038093440384E190E00E9462
:102CA0002A1AFC01108211821282138280E090E0C5
:102CB000A0E4B0E484839583A683B78340E050E02A
:102CC00060E171E4408751876287738780E090E01C
:102CD000A0E4B1E484879587A687B787108A118A14
:102CE000128A138AF0934303E093420384E190E055
:102CF00049835A836B837C830E942A1AFC01C12C6E
:102D0000D12C80E7E82E81E4F82EC082D182E282C5
:102D1000F38280E090E0A0E9B1E484839583A68308
:102D2000B783812C912C98EAA92E91E4B92E808644
:102D30009186A286B386412C512C20EC622E21E490
:102D4000722E4486558666867786108A118A128A84
:102D5000138AF0934103E093400384E190E00E94E2
:102D60002A1AFC0180829182A282B38280E090E0E4
:102D7000A8EDB1E484839583A683B783812C912C3D
:102D800030EFA32E31E4B32E80869186A286B386DF
:102D900084869586A686B786108A118A128A138A37
:102DA000F0933F03E0933E0384E190E00E942A1AEF
:102DB000FC01108211821282138214821582168203
:102DC000178210861186128613861486158616863B
:102DD0001786108A118A128A138A90933D03809372
:102DE0003C0384E190E00E942A1AFC0110821182C7
:102DF00012821382412C512C40EA642E40E4742E3E
:102E000044825582668277824086518662867386C6
:102E1000C486D586E686F786108A118A128A138AB6
:102E200090933B0380933A0384E190E00E942A1A36
:102E3000FC01412C512C50E2652E51E4752E40824C
:102E4000518262827382C482D582E682F782C08612
:102E5000D186E286F38684869586A686B786108A12
:102E6000118A128A138A909339038093380384E17C
:102E700090E00E942A1AFC01C082D182E282F38291
:102E800084829582A682B782812C912C60E2A62E44
:102E900062E4B62E80869186A286B3868486958665
:102EA000A686B786108A118A128A138A90933703EE
:102EB0008093360384E190E00E942A1AFC0110827C
:102EC00011821282138280E090E0A0E4B0E4848357
:102ED0009583A683B78380E090E0A0ECB0E4808780
:102EE0009187A287B38749815A816B817C8144870E
:102EF000558766877787108A118A128A138AF0931A
:102F00003503E093340384E190E00E942A1AFC0127
:102F100080E090E0A0E0B1E480839183A283B3835A
:102F2000448255826682778280E090E0A0E4B1E43A
:102F300080879187A287B38780E090E0A0E6B1E424
:102F400084879587A687B787108A118A128A138A81
:102F5000F0933303E093320384E190E00E942A1A55
:102F6000FC01C082D182E282F38280E090E0A0E89E
:102F7000B1E484839583A683B78380E090E0A0E9E1
:102F8000B1E480879187A287B38780E090E0A0EAD0
:102F9000B1E484879587A687B787108A118A128A39
:102FA000138AF0933103E09330030F900F900F904A
:102FB0000F90DF91CF91FF90EF90DF90CF90BF9077
:102FC000AF909F908F907F906F905F904F900895FB
:102FD000EE0FFF1F0590F491E02D09945058BB2788
:102FE000AA270E9406180C9479190E946B1938F0D0
:102FF0000E94721920F039F49F3F19F426F40C94C2
:1030000068190EF4E095E7FB0C946219E92F0E9411
:103010008A1958F3BA17620773078407950720F0D7
:1030200079F4A6F50C94AC190EF4E0950B2EBA2F9A
:10303000A02D0B01B90190010C01CA01A0011124BE
:10304000FF27591B99F0593F50F4503E68F11A166A
:10305000F040A22F232F342F4427585FF3CF4695FB
:1030600037952795A795F0405395C9F77EF41F161D
:10307000BA0B620B730B840BBAF09150A1F0FF0FE7
:10308000BB1F661F771F881FC2F70EC0BA0F621FD3
:10309000731F841F48F4879577956795B795F795C3
:1030A0009E3F08F0B0CF9395880F08F09927EE0F58
:1030B0009795879508950E943E1908F481E0089538
:1030C0000E9474180C9479190E94721958F00E9489
:1030D0006B1940F029F45F3F29F00C9462195111EB
:1030E0000C94AD190C9468190E948A1968F39923FD
:1030F000B1F3552391F3951B550BBB27AA276217F4
:103100007307840738F09F5F5F4F220F331F441F00
:10311000AA1FA9F335D00E2E3AF0E0E832D0915034
:103120005040E695001CCAF72BD0FE2F29D0660F21
:10313000771F881FBB1F261737074807AB07B0E864
:1031400009F0BB0B802DBF01FF2793585F4F3AF06A
:103150009E3F510578F00C9462190C94AD195F3FB5
:10316000E4F3983ED4F3869577956795B795F795F0
:103170009F5FC9F7880F911D9695879597F90895D8
:10318000E1E0660F771F881FBB1F62177307840774
:10319000BA0720F0621B730B840BBA0BEE1F88F783
:1031A000E09508950E94921988F09F5798F0B92FE2
:1031B0009927B751B0F0E1F0660F771F881F991F6C
:1031C0001AF0BA95C9F714C0B13091F00E94AC1949
:1031D000B1E008950C94AC19672F782F8827B85F59
:1031E00039F0B93FCCF3869577956795B395D9F7C4
:1031F0003EF490958095709561957F4F8F4F9F4FCE
:103200000895E89409C097FB3EF4909580957095D9
:1032100061957F4F8F4F9F4F9923A9F0F92F96E922
:10322000BB279395F695879577956795B795F11197
:10323000F8CFFAF4BB0F11F460FF1BC06F5F7F4F34
:103240008F4F9F4F16C0882311F096E911C0772346
:1032500021F09EE8872F762F05C0662371F096E84F
:10326000862F70E060E02AF09A95660F771F881F1E
:10327000DAF7880F9695879597F90895990F0008C2
:10328000550FAA0BE0E8FEEF16161706E807F90738
:10329000C0F012161306E407F50798F0621B730BD3
:1032A000840B950B39F40A2661F0232B242B252B54
:1032B00021F408950A2609F4A140A6958FEF811DF7
:1032C000811D089597F99F6780E870E060E0089598
:1032D0009FEF80EC089500240A941616170618062E
:1032E0000906089500240A9412161306140605060A
:1032F0000895092E0394000C11F4882352F0BB0F9B
:1033000040F4BF2B11F460FF04C06F5F7F4F8F4FFD
:103310009F4F089557FD9058440F551F59F05F3F38
:1033200071F04795880F97FB991F61F09F3F79F0E7
:1033300087950895121613061406551FF2CF469569
:10334000F1DF08C0161617061806991FF1CF8695EB
:103350007105610508940895E894BB2766277727CF
:10336000CB0197F908950E943E1908F48FEF089554
:103370000E94CB190C9479190E946B1938F00E94A5
:10338000721920F0952311F00C9462190C946819AD
:1033900011240C94AD190E948A1970F3959FC1F302
:1033A000950F50E0551F629FF001729FBB27F00DF3
:1033B000B11D639FAA27F00DB11DAA1F649F662748
:1033C000B00DA11D661F829F2227B00DA11D621F97
:1033D000739FB00DA11D621F839FA00D611D221F51
:1033E000749F3327A00D611D231F849F600D211D35
:1033F000822F762F6A2F11249F5750409AF0F1F0B8
:1034000088234AF0EE0FFF1FBB1F661F771F881F20
:1034100091505040A9F79E3F510580F00C946219DD
:103420000C94AD195F3FE4F3983ED4F386957795FD
:103430006795B795F795E7959F5FC1F7FE2B880FC6
:10344000911D9695879597F908950E943E19880BCE
:10345000990B0895CF93DF938230910510F482E0A9
:1034600090E0E0914803F091490320E030E0C0E0B3
:10347000D0E0309711F14081518148175907C0F0D1
:103480004817590761F482819381209719F09B8333
:103490008A832BC0909349038093480326C021154B
:1034A000310519F04217530718F49A01BE01DF01E4
:1034B000EF010280F381E02DDCCF2115310509F108
:1034C000281B390B2430310590F412968D919C9174
:1034D00013976115710521F0FB019383828304C06A
:1034E0009093490380934803FD01329644C0FD0147
:1034F000E20FF31F81939193225031092D933C9356
:103500003AC02091460330914703232B41F4209188
:103510000201309103013093470320934603209129
:103520000001309101012115310541F42DB73EB75D
:103530004091040150910501241B350BE091460395
:10354000F0914703E217F307A0F42E1B3F0B281757
:10355000390778F0AC014E5F5F4F2417350748F00C
:103560004E0F5F1F509347034093460381939193FF
:1035700002C0E0E0F0E0CF01DF91CF9108950F931A
:103580001F93CF93DF93009709F48CC0FC0132970F
:10359000138212820091480310914903011511050D
:1035A00081F420813181820F931F20914603309155
:1035B00047032817390779F5F0934703E09346034B
:1035C00071C0D80140E050E0AE17BF0750F412962A
:1035D0002D913C911397AD012115310509F1D901C8
:1035E000F3CF9D01DA013383228360817181860FDD
:1035F000971F8217930769F4EC0128813981260F00
:10360000371F2E5F3F4F318320838A819B819383B5
:103610008283452B29F4F0934903E093480342C089
:103620001396FC93EE931297ED01499159919E01E7
:10363000240F351FE217F30771F480819181840F05
:10364000951F029611969C938E9382819381139677
:103650009C938E931297E0E0F0E0D80112968D9142
:103660009C911397009719F0F8018C01F6CF8D917A
:103670009C9198012E5F3F4F820F931F209146032C
:10368000309147032817390769F4309729F41092CD
:1036900049031092480302C0138212821093470319
:1036A00000934603DF91CF911F910F91089581E020
:1036B00090E0F8940C941B1C8F929F92AF92BF9253
:1036C000CF92DF92EF92FF92CF93DF93EC0168816C
:1036D00079818A819B81611571058105910521F4AC
:1036E00064E279ED8BE597E02DE133EF41E050E0C6
:1036F0000E94B81B49015A019B01AC01A7EAB1E441
:103700000E94D71B6B017C01ACEEB4EFA5019401C4
:103710000E94E51BDC01CB018C0D9D1DAE1DBF1D64
:10372000B7FF03C00197A109B04888839983AA8392
:10373000BB83BC01CD019F77DF91CF91FF90EF90CC
:10374000DF90CF90BF90AF909F908F9008950E9490
:103750005C1B089586E091E00E945C1B08956093D5
:103760000601709307018093080190930901089561
:10377000052E97FB1EF400940E94CF1B57FD07D027
:103780000E94EA1B07FC03D04EF40C94CF1B50950B
:103790004095309521953F4F4F4F5F4F089590953D
:1037A0008095709561957F4F8F4F9F4F08950E9430
:1037B0000C1CA59F900DB49F900DA49F800D911D92
:1037C00011240895B7FF0C94D71B0E94D71B821BAE
:1037D000930B0895A1E21A2EAA1BBB1BFD010DC07D
:1037E000AA1FBB1FEE1FFF1FA217B307E407F507B1
:1037F00020F0A21BB30BE40BF50B661F771F881F8D
:10380000991F1A9469F760957095809590959B0122
:10381000AC01BD01CF010895A29FB001B39FC001CB
:10382000A39F700D811D1124911DB29F700D811DEC
:0A3830001124911D0895F894FFCFB4
:10383A0000004A03800001000000000000000B01A4
:10384A008700D400B200C60052013D3D3D3D3D3DDA
:10385A003D3D3D3D3D3D3D3D3D3D3D3D3D3D3D3D8E
:10386A003D3D0046757A7A79204C6F676963207509
:10387A006E74756B204C616D70752050656E79653C
:10388A006272616E67204A616C616E00496E69738B
:10389A0069616C69736173692E0056697274756126
:1038AA006C2053656E736F72004A756D6C61682087
:1038BA004B656E64617261616E203A20004A756DD3
:1038CA006C61682050656E79656272616E67203A34
:1038DA0020004C616D70752064616C616D206D6FA4
:1038EA00646520486174692D68617469004C616D72
:1038FA0070752064616C616D206D6F6465204C6128
:10390A006D61004C616D70752064616C616D206D34
:10391A006F6465204E6F726D616C004C616D7075DD
:10392A002064616C616D206D6F6465204365706110
:10393A0074004C616D70752048696A617520756EF6
:10394A0074756B206B656E64617261616E2064616F
:10395A006C616D200020646574696B004A6564615E
:10396A00204C616D7075204B756E696E6720322030
:10397A00646574696B20004C616D70752048696AD2
:10398A00617520756E74756B2070656E79616272EF
:10399A00616E672064616C616D20000D0A006E61C2
:0A39AA006E00696E66006F7666001D
:107E0000112484B714BE81FFF0D085E080938100F7
:107E100082E08093C00088E18093C10086E0809377
:107E2000C20080E18093C4008EE0C9D0259A86E02C
:107E300020E33CEF91E0309385002093840096BBD3
:107E4000B09BFECF1D9AA8958150A9F7CC24DD24C4
:107E500088248394B5E0AB2EA1E19A2EF3E0BF2EE7
:107E6000A2D0813461F49FD0082FAFD0023811F036
:107E7000013811F484E001C083E08DD089C08234E0
:107E800011F484E103C0853419F485E0A6D080C0E4
:107E9000853579F488D0E82EFF2485D0082F10E0AE
:107EA000102F00270E291F29000F111F8ED06801E7
:107EB0006FC0863521F484E090D080E0DECF843638
:107EC00009F040C070D06FD0082F6DD080E0C81688
:107ED00080E7D80618F4F601B7BEE895C0E0D1E017
:107EE00062D089930C17E1F7F0E0CF16F0E7DF06D8
:107EF00018F0F601B7BEE89568D007B600FCFDCFD4
:107F0000A601A0E0B1E02C9130E011968C91119780
:107F100090E0982F8827822B932B1296FA010C0160
:107F200087BEE89511244E5F5F4FF1E0A038BF0790
:107F300051F7F601A7BEE89507B600FCFDCF97BE46
:107F4000E89526C08437B1F42ED02DD0F82E2BD052
:107F50003CD0F601EF2C8F010F5F1F4F84911BD097
:107F6000EA94F801C1F70894C11CD11CFA94CF0C13
:107F7000D11C0EC0853739F428D08EE10CD085E9AC
:107F80000AD08FE07ACF813511F488E018D01DD067
:107F900080E101D065CF982F8091C00085FFFCCF94
:107FA0009093C60008958091C00087FFFCCF809118
:107FB000C00084FD01C0A8958091C6000895E0E648
:107FC000F0E098E1908380830895EDDF803219F02E
:107FD00088E0F5DFFFCF84E1DECF1F93182FE3DFCA
:107FE0001150E9F7F2DF1F91089580E0E8DFEE27F6
:047FF000FF270994CA
:027FFE00040479
:0400000300007E007B
:00000001FF
